:1000000001000000000000A0000200000AB6BD1BB5
:100010001CF09FE51CF09FE51CF09FE51CF09FE5A0
:100020001CF09FE51CF09FE51CF09FE51CF09FE590
:100030000F1D0F0C1C100200640F0200740F020051
:10004000CC0F0200DC0F0200EC0F0200FC0F0200DC
:1000500008100200000000EAB88200EA28008FE2DF
:10006000000C90E800A08AE000B08BE001704AE24A
:100070000B005AE1B182000A0F00BAE814E04FE227
:10008000010013E303F0471013FF2FE1DC1302001C
:100090001C1402000030A0E30040A0E30050A0E3E5
:1000A0000060A0E3102052E27800A128FCFFFF8A44
:1000B000822EB0E13000A128003081451EFF2FE1E3
:1000C00004309FE503308FE013FF2FE1350D020070
:1000D0001D48802110B549F3DAEB1C48582149F33B
:1000E000D6EB1B4800210A0006C0202117485830D3
:1000F00049F3CCEB002010BDF0B50024144F0837B5
:10010000012609E0C519686801F02CFC6968300017
:10011000884010498860641CE00039580029F1D1FA
:100120000B4F0024283709E0C519686801F01AFC54
:1001300069683000884008498860641CE0003958CC
:100140000029F1D10020F0BD98140200F00F000446
:10015000400E0004009000A8009100A85E48042210
:100160000621027041700271417102724172704742
:10017000F8B505F0DCFA002803D002F0DFFC002817
:1001800079D1554800241838046000F02CFB05F0A4
:100190009BFA52490D5C01F091FD290049F3BEEC38
:1001A0004F4E2300320049F338E9401C61410504F9
:1001B0002D0C05F089FA4B4940000F5A05F05DFB04
:1001C000390049F3ACEC2300320049F326E9401C26
:1001D00061410004000C290000F014FB05F074FAE2
:1001E00041490D5C01F06AFD290049F398EC2300B8
:1001F000320049F312E9401C614105042D0C05F061
:1002000063FA3A490F5C01F059FD39005EB014B051
:1002100001000000FC0100A000020000CE6362307B
:1002200049F386EC2300320049F300E9401C6141A8
:100230000004000C290000F006FB082000F0F2FA90
:1002400001F046FD310049F38EEC401C0004000C27
:1002500000F0F1FA01F03CFD052149F36AEC294A6E
:10026000230049F3E4E81922801861410006000EDA
:1002700000F0EFFA601E04F0B7F8FF24641C2000C1
:1002800004F0ACF8200004F0B5F804F0C5F804F070
:10029000D7F8402002F0FAFB00F0ECFA00F0E1FAA7
:1002A00019490120086004F0F7F804F00FF904F090
:1002B00016F904F049F90C2001F0FFFCC02001F010
:1002C000FCFC04F059F904F069F904F070F904F049
:1002D00080F9302001F0F1FC0320000201F0EDFC78
:1002E000FFF746FF00F090F9F8BD0000205700B07E
:1002F0002C00000440420F001600000442000004DD
:1003000037000004C0C62D00585700B010402DE93A
:10031000CA8300EB78409FE5000094E5000050E3BD
:100320000300000A6A0100FA000094E5000050E3AF
:10033000C483001B080200FA0000A0E3D41500FBF0
:10034000950100FA0000A0E35B0100FB5B0100FAED
:10035000000094E5000050E34C01001BAF0100FBDE
:10036000DF0100FB000094E5000050E30100000AFB
:10037000AB0100FB331600FAA90100FA00000FE1FF
:10038000BF0000E200F021E12C1500FA0000A0E31C
:100390001080BDE8B46300B010B500F0A3FC05F315
:1003A0009FF905F05BFB00F077FC002801D00120ED
:1003B00010BD05F053FF002010BD10B5FFF7E2FEA1
:1003C00020F04AFD0400012003F09CFF200020F0F3
:1003D00047FD05F0B6F9002805D002F0B9FB00286A
:1003E00001D002F0A0FB002010BD10B502F024FDEA
:1003F00010BD9308002210B502E09400521C015178
:100400009A42FAD310BD064A0648002110B5FFF7FC
:10041000F0FF00F015FB00F09BF9002086C69E0956
:1004200001000000F80300A0000200003A8BDC8D00
:1004300010BD000060530000B0910004F8B505F055
:1004400067F90500874801680222114301600168CD
:1004500008231943016083494031CB681343CB60C3
:10046000436813434360CA6840263243CA60CB687E
:1004700080221343CB60016831430160016811435E
:100480000160416831434160416811434160764CED
:1004900020681E2188432060744FF96A2020814320
:1004A000F96204F080FF022005F0CFF8000604D5C1
:1004B0004021272005F006F903E00321092005F07B
:1004C0000CF9A80703D4B86801210843B86068484C
:1004D000C16B0122D2059143C163C16B0322D204D7
:1004E0001143C1630721082005F0F7F80321072015
:1004F00005F0F3F804F086FF2068E02188432060CF
:1005000060691521884360616069B043606160691A
:1005100001218906884360616069052109078843D4
:100520006061E06953490840E061E06940084000CB
:10053000E061E0691027B843E06104F01FF84E4A1B
:1005400010682021084310604C4A10680421884339
:1005500010604B480D21006889014018016852065F
:1005600011430160A069B043A0616068454908403B
:1005700060606168444801406160A168434A11407D
:10058000A160A1680140A160E168414A1140E160B9
:10059000E1687A039143E160E1680140E160374A34
:1005A0001820C043C03A1168014039431160394AEC
:1005B000A906116803D501400820014301E001406C
:1005C00039431160344801690904090C016141692A
:1005D0000904090C416181690904090C8161E06920
:1005E000012189038843E061E06989008843E06173
:1005F000E06909118843E061E069052109060843C3
:10060000E06104F031F8F8BD10B500F008F82348B7
:100610000068002801D0FFF711FF10BD7047124895
:100620000168032212029143016041692F3BA01827
:1006300001000000F40500A000020000237302FD89
:1006400042019143416141694200914341618169A5
:10065000C200914381610F480068016F012211437C
:100660000167016F022291430167C0300168D20621
:1006700011430160704700000023008000280080C3
:100680000029008000910090FBFBFFFF0027008005
:10069000403D0080745700B0DFFFD5FD7FFF7FFF36
:1006A000D5FDD5FDD5FDD7FDC03C008000220080E2
:1006B000B46300B0084810B50168084B0A00103157
:1006C00008001960111D5960242149F3FEE804490E
:1006D000022002F02DFC10BD98C500B0685700B094
:1006E00079380000F8B5002425001C48A70014261E
:1006F0006643C5511A481421301849F3E6E81848F2
:1007000014211430301849F3E0E81548142128303A
:10071000301849F3DAE8114830222838C159104816
:1007200062433C301018C4608160456185610D49A9
:10073000C56101610C4901620C498562416206F3A1
:10074000EBF8641C012CD0DB0949082001F028F9E2
:100750000849FF20401C8860F8BD00002C6400B0F0
:10076000BCFC00B0E53A0000013D00002B3F00005A
:100770000F410000009000A80F490E4810B5086016
:100780000F490E48086010490E48086010490F488C
:10079000086011490F4808601048802149F394E827
:1007A0000E488021803049F390E80D48802149F3BC
:1007B0008CE810BDDD1302003CE500049D42000002
:1007C00040E50004E142000044E500044054890093
:1007D00034E50004A086010038E5000440CC00B0F8
:1007E00040CD00B010B5084C00206062DF20000250
:1007F000E0620648A06201210548490249F364E825
:1008000001206062002010BDC09B00A800ADDEEF9B
:10081000C0CD00B026484068C168264A1143C16077
:10082000704700B5FFF7F6FF214840684168012294
:100830005202114341604168D2001143AB2091AE96
:1008400001000000F00700A000020000D79BBC40A0
:10085000416000BD090401431A4840688161704746
:1008600018494968CA681204120C00040243CA609D
:100870007047144949684A69120C120402434A61DC
:100880007047090401430F484068C16370470D4930
:1008900049684A68120A120202434A6070470948CE
:1008A0004068FF30413041681D22914341607047EC
:1008B00004484068FF304130416802229143416062
:1008C00070470000705700B08F0300008FC08FE2A8
:1008D0001CFF2FE101210920000701600021416078
:1008E00070476848012101600021416070476648F7
:1008F000016B80221143016370477047634800B564
:100900000068002801D0FFF7F2FFFFF7EAFF00BD03
:1009100010B55F4C20F0BAECA04221D05D490840F0
:10092000040004F054FD262004F0A3FE0109200772
:100930000901000F08430106090E262004F08BFE72
:1009400004F074FD200A4107534A490F042911702D
:1009500001DD04211170000702D5107840421070AB
:1009600010BDFF20C130202100B504F034FF00BDD0
:1009700010B54A4C207900280BD10120207104F0D9
:1009800040FF062004F075FEC006C00F607104F041
:100990002AFF607910BD70B50600FFF7E9FF404DF2
:1009A0002C0D002811D004F02CFF8021262004F00B
:1009B0009DFE04F018FFA8682043A86039488168AC
:1009C000220211438160002003E0A868A043A860D0
:1009D000300005F06FF870BD10B507F057FA04F05D
:1009E000CCFC02F0A3FE7D24E4010021200004F0F1
:1009F000CCFC0021200004F0CBFC0021200004F0FE
:100A0000CAFC0021200004F0C9FC274C0221200070
:100A100004F0BEFC0221200004F0C0FC234C6068FE
:100A2000234908406060E068172149020843E060FC
:100A300004F082FE2168C2061E4801D5014300E091
:100A40008143626862602160216801437365F6E258
:100A500001000000EC0900A0000200001082BE1D91
:100A600021600F480068002802D0B520FFF79DFFE5
:100A700010BD7047704710B504F029FF0C4C0028DA
:100A800002D005F074F801E005F080F8E06010BDD8
:100A90000F490E4808607047003000A8400C0090D5
:100AA000B46300B0FFFF00003F0F0000705700B0BC
:100AB000385800B08028008040230080409C00000F
:100AC00000210080FF7FFF7F000000203F580000D2
:100AD000BC5900B0F8B5324800680002000F082881
:100AE00028D1304C6069E5042843606160694000AA
:100AF0004008606120680826304320602068EF12BB
:100B0000B84320604821452004F0AFFD042148206F
:100B100004F0ABFD2068304320602068384320603B
:100B2000322004F0C6FE60692843606160692105D7
:100B300008436061F8BD1C4810B5006800282DD03E
:100B400004F069FEFFF7C6FF2021192004F0D8FD4C
:100B50000221162004F0D4FD2F21332004F085FD5E
:100B60000321572004F081FD9221242004F07DFD13
:100B70006221252004F079FD262004F084FD800800
:100B80008000022108430106090E262004F06DFDB5
:100B90006621412004F069FD04F02FFE10BD000025
:100BA0000020008000280080B46300B070B5444C81
:100BB000444D2068444E002808D0E817306070602B
:100BC00004F0AEFF286A4000400828623D48C03863
:100BD000816A090C09048162816A8B2292001143A7
:100BE00081623A4900208860900639490122120446
:100BF000036880188842FBD3002001688018904267
:100C0000FBD30120800600682068002855D004F03E
:100C100002FE0F21622004F028FD1021332004F091
:100C20007AFD04F0EAFD706B0121C902084370638C
:100C30003068632188433060F06826490840F060DE
:100C400004F0CFFB07210D2004F065FD07211B20D8
:100C500004F061FD04211B2004F052FD23451CD942
:100C600001000000E80B00A000020000E46A00A000
:100C70004021252004F04EFD4021172004F04AFDBC
:100C8000022004F00AFD400603D540210B2004F0A9
:100C900041FD04F0DFFB04F063FD800604D4F0683E
:100CA000012189038843F0601048C168104A11404F
:100CB000C160C1680F4A1143C1602068002806D096
:100CC000012040046862801CA8620B48E862002092
:100CD00070BD0000B46300B0C0900090002100809F
:100CE00000230080000001B0C0FFFF7F802800804B
:100CF000F0F0FFFF0A0A00000202020000B50D49F1
:100D0000002087B00860020001001E2003AB07C36B
:100D100002000948FF21491C6B4607C3A838074A4F
:100D2000002307A103F3EEFB0006000E00D0012014
:100D300007B000BD9C0E0004EC1600040362000026
:100D400049646C650000000010B5FFF7E9FC06F08F
:100D500086FD07F00FFA07F043FA10BD11483C2159
:100D600010B548F3D0ED0F4800210160416081606B
:100D70008161016201630C4A4163C2620B4C816371
:100D80000B48EE22210048F31AED0948094B0422D2
:100D900021003EF3FEF810BD10B500F00DFB002061
:100DA00010BD00005CD6000437880000DC050000A0
:100DB00068100004E3EE3300F8B5C54C20680C253C
:100DC000A8432060C348C168820C1143C160C16858
:100DD000072252021143C160C16801221206114369
:100DE000C160C16889098901C160C168C20D9143B0
:100DF000C160C168C20C9143C160C1685603B14370
:100E0000C160C1680722D2069143C160C168F21077
:100E10001143C1600168B04A114301607D20002187
:100E2000400204F0C6FA7D27FF010021380004F0DB
:100E3000C6FA0021380004F0BFFA0021380004F09F
:100E4000C1FAA649086A1022104308622068A84324
:100E50002060606851068843606004F0EFFEA0687F
:100E6000B1000843A0602069A90588432B0D85CCFB
:100E700001000000E40D00A000020000FD92DED0A1
:100E800020612069304320619A4D686800206860C5
:100E9000686819210906084368609648803001682F
:100EA0004026B143016001680F22120291430160A4
:100EB0000168032252021143016001680F221203EC
:100EC00091430160016803225203114301600168EC
:100ED000090909010160016806273943016020689A
:100EE00030432060206830218843206004F032FCC9
:100EF0000528206802D910210843FFE720602868F0
:100F00000121084328602868B84328607648C168F2
:100F1000020D1143C160816A31438162012004F0F6
:100F200028FF012005F07AFAF8BD10B505F0BAFAED
:100F30007149088071487249000C000408607249C8
:100F400070480860724971480860734971480860C8
:100F5000734972480860744972480860744973485C
:100F60000860754973480860754974480860764997
:100F70007448086076497548086077497548086084
:100F80007749764808607849764808607849774814
:100F900008607949774808607949784808607A4953
:100FA000784808607A49794808607B497948086040
:100FB0007B497A4808607C497A4808607C497B48CC
:100FC00008607C487C4908607D497C4808607E490F
:100FD0007C4808607E497D4808607F497D480860FC
:100FE0007F497E48086080497E48086080497F4884
:100FF000086081497F48086010BD0121080010B5D4
:1010000002F058FD04F0A6FB7C494000085A7C49D8
:10101000086000F0FBF90221012002F04BFDFFF710
:10102000D5FE0321012002F045FD20F052E9042104
:10103000012002F03FFDFF22724919321C2005F306
:1010400089FD0521012002F035FD0621012002F075
:1010500031FDFFF76AFF0721012002F02BFD6A49ED
:10106000E1204002086020F038E90821012002F068
:1010700021FD65490422072020F032E9298C4938F6
:1010800001000000E00F00A000020000097A606D7E
:101090000921012002F018FD614800210A0006C064
:1010A0005F4A60496048614B05F3CDFE0A2101208B
:1010B00002F00AFD00F0C2F90B21012002F004FD4C
:1010C00000F072F90C21012002F0FEFC00F0B0F8F3
:1010D0000D21012002F0F8FC0E21012002F0F4FCA9
:1010E000002010BD10B500F0B9F900F0F3F900F0E0
:1010F0005FF9002010BD0000002F0080002100805B
:1011000000081C200028008080260080C8E8000419
:10111000A06D00B0BCEA0004B96200006CE50004F8
:10112000058F00005CE500043B8F000060E50004D3
:10113000558F000068E500044D8F000064E5000451
:10114000C11200B098E600040B0F00B09CE600044A
:10115000631100B0A0E60004A91100B0A4E60004E9
:10116000C51100B0A8E600041DE1000080EC0004F9
:101170002FE1000084EC000441E1000088EC000451
:10118000BF1200B0ACE60004551800B0B0E6000491
:10119000B31800B0BCE60004E91800B0C0E60004D3
:1011A000ED1800B0C4E6000457DC00008CE6000433
:1011B00027DD000090E6000473630000F4F60004ED
:1011C000D5730000BCE5000457580000B4E60004E5
:1011D00059580000B8E600045F740000B4E500044C
:1011E00019740000B8E500044F6E0000B0E500047B
:1011F000056E0000ACE500045763000084E60004BF
:101200006563000088E60004A763000094E600041C
:10121000000000047CE50004A833000494E5000409
:10122000BC5800B0B81B0000F0170004A45600B072
:101230000449034810B54860080005F06EF810BD79
:101240004B650000E05800B0114910480860124991
:101250001048086012491148086013491148086095
:101260001349124808601449124808601449134889
:101270000860154913480860154914480860164964
:10128000144808601649154808607047DEA5717C4F
:1012900001000000DC1100A0000200007761C7DD42
:1012A000A76A0000A0F50004A96A000090F50004F8
:1012B000DF6A000094F50004E56A000098F5000478
:1012C0000D6B00009CF50004176B0000B0F50004E6
:1012D0002F6B0000B4F500045D6B0000A4F5000462
:1012E000756B0000A8F50004416B0000B8F5000420
:1012F0004F6B0000ACF5000410B50124A402204897
:10130000EE22210086B048F378EA11F0D7FD0DF007
:10131000BDF8012200210C2003AB07C302001848CE
:1013200002920090174A0019002317A1019403F3B9
:1013300007F900281DD1194815A101F393FE18489B
:101340001A4A4168174881601749016100214161CB
:101350008261174AC161026241621649816205F3E6
:1013600017FB002805D11449112000F055FB002877
:1013700002D0012006B010BD00F0AEFA0020F9E75F
:10138000683C0004717A00004E66635461736B0020
:101390004E6663466C6167730000000010410004F4
:1013A000645900B078E800B06D7A0000697A0000F6
:1013B000557A00004B7A0000317A0000064900207F
:1013C00008807047064905480860074905480860D5
:1013D000074906480860704728EB00B0D57F000039
:1013E00004FD0004AB7F000000FD0004A97F0000A5
:1013F000FCFC0004084804A1016008A141600C49FC
:101400000A480860704700006D6465765F61697521
:101410007265636F7264000018ED00046D64657698
:101420005F616975706C6179000000009D89000042
:101430009CF8000470B500240B4D04E0401940688E
:1014400000F0EAFA641CE00029580029F6D170BDCA
:1014500006488168FF22521C114381608168102276
:101460001143816070470000EC5900B0009000A863
:1014700010490F4810B5086010490F48086011491D
:101480000F480860114910480860FFF7E7FE1FF099
:1014900040EF00F033FA0F490D4808604D2B82C62B
:1014A00001000000D81300A00002000083897960C9
:1014B0000F490E48086006F3F3FD0F490D48086018
:1014C00010BD00003D64000024F6000445640000E7
:1014D0001CF600044D64000020F60004BF2400B098
:1014E00024F50004D91500B054F90004FF1700B02A
:1014F00058F90004412F0100C0FC00046E496D48FA
:1015000010B508606E496D4808606F496D48086005
:101510006F496E48086070496E48086070496F48AE
:10152000086071496F4808607149704808607249E5
:101530007048086072497148086073487149416297
:10154000734A416471491160734A72491160744A67
:1015500072491160744A73491160754A7349116088
:10156000C11D744AF9314A61744A73491160754961
:10157000734A0A60744A4A60754A74491160764A2F
:1015800074491160764A75491160774A754911604E
:101590007649774A11600100764A80310A61026516
:1015A000754A4A614265754ACA61C265C266744A33
:1015B0000267744A0A62744A4A62754A7349116042
:1015C000754A74491160764A74491160764A7549C2
:1015D0001160774A75491160774A76491160784AF7
:1015E00076491160784A77491160794A77491160E4
:1015F0007849016678497A4A4166784911607949A3
:10160000016201647949784808607A49784808603D
:101610007A49794808607B49794808607B497A486B
:1016200008607C497A4808607B497C4802F0E4FE07
:101630007C497B4808607D497B4808607D497C483F
:1016400008607E497C4808607E497D4808607F4983
:101650007D4808607F497E48086080497E48086070
:1016600080497F48086081497F48086081498048F7
:10167000086082498048086082498148086083493F
:10168000814808608349824808608449824808602C
:10169000844983480860844901200870844983484C
:1016A000086085488349C160844941610AE862094C
:1016B00001000000D41500A0000200009A71A710DC
:1016C00085498448086010BD9594000034FD0004ED
:1016D0003390000050F4000409900000C0FB0004A7
:1016E000B593000018F900048D94000014F900046B
:1016F0004DA70000C8F300045B99000040FC000403
:10170000ADA00000BCFC0004C39F00003CFD000431
:1017100081A2000054F7000431A3000040EB000454
:10172000B9A4000018F600045DA50000C4FB000485
:10173000D1A50000E4F6000469A60000D8FC00046E
:101740007D9A000048FC000487A60000A1A60000C6
:1017500034F7000451A80000D8E8000477A800007E
:101760009DA8000030F50004B7A8000004F80004AC
:10177000EDA8000058F8000473A900002CFD000437
:10178000D9A90000DCFC0004CDAA000063B1000070
:101790000BAC000053C000009FC0000011C200004D
:1017A000F9B100008CF7000411B2000080F70004CA
:1017B0005DAC00002CF70004BFB100004CF8000441
:1017C000E3BF00003CF8000447B20000ECF4000462
:1017D00063B300000CF8000429B5000040F80004D1
:1017E00035B5000014F800044FB5000093B50000B3
:1017F0003BB8000060F80004CFB6000001BA00005A
:10180000A4F70004DDB9000094F700042DBA00002D
:1018100098F7000459BA0000C0F700047DBA000030
:101820005CFC000479BF000038F700040798017AD7
:10183000C05132009DC200002CF8000435C30000E6
:1018400098FB00048FC30000C0F60004B7C300007B
:1018500030F40004DDC30000B0F60004ABC10000AA
:1018600050F70004D9C1000020F80004A9C400000A
:1018700024F80004E5C4000044F80004FBC40000A0
:10188000D4F900044FC5000090F400044BC60000DA
:10189000ACF9000469C60000A0FB000459C60000B2
:1018A00058F60004CDC600006CFB0004EFC6000033
:1018B00048F600043BC70000A4FC0004F8776BDA8C
:1018C00001000000D01700A0000200006E9919ADC1
:1018D000C5EA000479C80000F8F70004EDC800006C
:1018E00068E9000429C90000A7C90000D8F600046F
:1018F000054810B50078102804D1044904484C224A
:1019000007F0D0FB10BD0000A50E0004B20E0004CD
:10191000E20F00040548064910B50078097800F088
:1019200029F804480068804710BD0000004000AA64
:10193000004000AA74F000040749064808600849FE
:1019400006480860084907480860094907480860D0
:1019500070470000EF8E0000CCF30004992F0100C7
:10196000D4F70004A72F0100D8F70004B52F010019
:10197000D0F70004064808B502680092054A0649F7
:10198000130008000C386C3303F398FF08BD000007
:10199000980E0004F81E01B0646300B00449054AC3
:1019A000497812780120914200D000207047000051
:1019B000000002A9000002A910B51FF0EEEB01F330
:1019C00075FD002010BD10B50C0001F0DFF8844952
:1019D0000860C10702D02100052015E0810702D56B
:1019E0002100062010E0410702D5210007200BE06E
:1019F000010702D52100082006E0C00602D521001B
:101A0000092001E0210000201FF03CEC012010BD66
:101A1000F1B5002073490E68734F340005000AE0E9
:101A2000E10706D0A9007A58002A02D000993000B8
:101A3000904764086D1C002CF2D1012803D0009956
:101A400000201FF020ECF8BD654910B5486001F09A
:101A500024F910BD202800D3FEE7634A8000135804
:101A6000002B00D0FEE71150002070475F4800684F
:101A7000002800D00120704702688368C168100008
:101A8000184770B55A4D6C6AE00703D0FFF20CEEB0
:101A9000A81768625748A10706D52021C1604217E0
:101AA0006A6282680A438260610703D5A96A0422D8
:101AB0009143A96221070AD5A96A08229143A96224
:101AC0008021C160D2436A6282680A43DEAF577ADE
:101AD00001000000CC1900A000020000A9801BF04A
:101AE0008260012070BDF8B5484D2C6BE00702D034
:101AF000A81728630440200606D58020C043286329
:101B00008020844301F043F8200709D50820C04312
:101B100028630820844301F038FE082000F0B3FC5D
:101B2000600604D54020C043286340208443A006BB
:101B300006D52020C04328632020844300F06CFE9B
:101B4000600707D5042000F057FF0420C043286336
:101B500004208443200407D50126F603300001F059
:101B600016F8F0432863B4436003400F06D0072003
:101B7000000421000140C943296384430B2620004F
:101B800036053040070005D0380000F09DFBF843D3
:101B90002863B443E000400F09D00727BF062600A2
:101BA0003E40300000F0F9FAF0432863BC43002CBB
:101BB00006DA0120C00700F01AFB1548286304402C
:101BC0001448044205D0200000F076F9200001F00E
:101BD00062FA0D4881680122D20411438160F8BD88
:101BE000094B0122D20410B5DA60FFF77CFF012017
:101BF00010BD0000380E0004009100A898140200E7
:101C0000A8FD0004009400A8009000A88022008095
:101C1000FFFFFF7F0010000110B503F00AFE00284F
:101C200001D0AC48807D10BDF8B50027AA4D3C001E
:101C3000E968A8683E0079407840084303D004F37F
:101C400097FF06000C00FFF7E7FF04F093FA1FF080
:101C50007EEA04F090FAE968A8687940084309D060
:101C600004F386FFAA68801BEB68A14180185941E4
:101C7000E960A860F8BD10B502F012FC002826D07B
:101C800002F00DFC95490120C0048860001100F0AD
:101C900075FF93480088002801D102F051FC02F042
:101CA000BAFC02F094FC02F05BFC01F024FEFFF7AA
:101CB000B3FF1FF04CEA01F029FE02F049FC02F0EC
:101CC000B3FC02F08DFC02F04CFC02F0E7FB10BD0F
:101CD000FEB50024250026001FF036F97347BD83AA
:101CE00001000000C81B00A0000200005D68A54DB7
:101CF000019000F0D4FE002802D1FFF79FFF44E0DE
:101D000000F091FC00F008FE00F0F7FE7748006854
:101D1000810702D5C10700D00124010702D5410780
:101D200000D50125810602D5C00600D5012604F0A4
:101D300097FC009001F09EF9070002D1012001F00C
:101D4000ADF90120C007807804210840400702D483
:101D500000F04DFC05E0002CCFD0002DCDD0002EA2
:101D6000CBD000980028C8D0002FC6D0604CA56802
:101D7000E017E06001263603300000F012FFFFF7A5
:101D800084FF300000F004FFA56001981FF0EAF81E
:101D9000FEBD10B500F081FC00F00DFE00F0DEFE8F
:101DA000FFF7A0FF10BD10B51FF0D8F80400FEF734
:101DB000A3FC01F02FFD20001FF0D4F810BD10B5DA
:101DC00004001FF0CBF8494A1168214311601FF04D
:101DD000C9F810BD10B503F003FD47494000085A8B
:101DE000464B47495843096A0B071B0F47F32CEF33
:101DF000080507060609090B0B06400810BD8008F8
:101E000010BDC00810BD000910BD10B504001FF0C2
:101E1000A5F8364A1168A14311601FF0A3F810BD60
:101E2000324A010012680020914300D1012070471E
:101E3000F8B52E4C04F3A6FE22696369851A994110
:101E40000E00E1680091A0686422070047F3EEEEFF
:101E500033002A0047F36CEB009906000025380098
:101E600069406840084309D10120E560A06004F39F
:101E700089FE6A1E80185141616120613000F8BD01
:101E80001A4800218160C16001614161704710B54D
:101E900002F022FB10BD70B5040002F01DFB041B14
:101EA00003F077FD050017490026200047F3C2EE36
:101EB00033002A0047F33CEB70BDC00005D50B484A
:101EC0002C304068002800D00047704703000120F4
:101ED00010B5FFF7A5FF002804D0D80102D50020D7
:101EE00000F0DBFA10BD0000A002008015D22577BB
:101EF00001000000C41D00A00002000044907B3DD2
:101F0000085700B0009000A8BA5800B000000004C4
:101F1000A08601000028008040420F00022910B571
:101F200005D0032903D0042901D0052903D1C14BD1
:101F3000FF21491C9960042A05D0052A03D0062AEE
:101F400001D0072A07D1002805D100210A22080064
:101F50000B0004F0DEFB10BD7047052803D2B64924
:101F60008000085C7047FF20704710B50C0000200F
:101F7000FFF7F3FFA04201D100F080FA0120FFF744
:101F8000ECFFA04201D100F051FC0220FFF7E5FF79
:101F9000A04201D100F03AFD10BD10B50C000020A8
:101FA000FFF7DBFFA04201D100F07CFA0120FFF730
:101FB000D4FFA04201D100F03EFC0220FFF7CDFF8C
:101FC000A04201D100F027FD10BD042910B507D0B3
:101FD00004DC022904D0032906D101E0052903D13C
:101FE00000F01BFA002800D0012010BD022910B516
:101FF00005D0032903D0042901D0052901D100F01F
:10200000B5F910BD022910B505D0032903D0042964
:1020100001D0052901D100F068F910BDFF280BD0CF
:10202000854A00218B00D35C834202D10806000E52
:102030007047491C0529F5D3FF207047FF280CD0B5
:102040007D4A00218B009B185B78834202D1880077
:10205000105C7047491C0529F4D3FF207047052800
:1020600004D275498000401840787047FF207047BF
:10207000FF280CD0704A00218B00D35C834203D12F
:102080008800801840787047491C0529F4D3FF2048
:102090007047FF280CD0684A00218B00D35C834234
:1020A00003D18800801880787047491C0529F4D333
:1020B000FF207047F7B582B007000E000C2901D24F
:1020C000092F02D3002005B0F0BD00255A49A80011
:1020D0000A5CBA421ED14418A278B2421AD028062D
:1020E000000E3900019001F016FC002812D0A670F5
:1020F000E07804994007400FC9000843B02807243E
:1021000001000000C01F00A000020000B078C580E0
:10211000E07001983200390001F009FC002808D075
:10212000E07802210843E0706D1C052DD8D3012012
:10213000D3E74648AA00FF2110188170E0784007D5
:10214000400FE070C8E7F0B5060008003F4F0022DE
:1021500004219300FC5CB44209D1DD19EC78230022
:102160000B43002802D02300FB242340EB70521CB9
:10217000052AEED3F0BD354A00218B00D35C8342A3
:1021800006D188008018C0784007C017401C7047EF
:10219000491C0529F1D3002070470020704770B515
:1021A00005000C00100002F0B5F9200000F00DFD54
:1021B0002800FFF74DFF022805D0032803D004288C
:1021C00001D0052803D1200000F09CF870BD20004C
:1021D000FFF787FE70BD10B50400C00005D50122D1
:1021E000120311040C20FFF7DAFF200105D50122AC
:1021F000D20211040B20FFF7D2FF600105D50122A6
:10220000920211040A20FFF7CAFF10BD0120C0038B
:1022100010B502F079F90120C00700F0CDFC0C48A0
:10222000016A80221143016210BD0120C00310B574
:1022300002F070F90120C00700F0C7FC0449086AE9
:1022400080229043086210BD009000A8205700B083
:1022500000280080F3B581B00F000198FFF7E8FE79
:1022600004000198FFF70EFF06000198FFF71BFF1F
:102270000500002C03D0012C01D0022C19D1331FF2
:102280000126760547F3F4EC040309090E15102026
:1022900002F040F90120000509E0202002F03AF99F
:1022A000300004E0802002F035F90120C00500F084
:1022B0009AFC002F1DD10198FFF75DFF002818D070
:1022C0002B1F47F3D6EC06161616160A04160198AD
:1022D000FFF763FF01000D2009E00198FFF75DFFA4
:1022E000694AA1008918C978CA080100100000F0E5
:1022F000D2FFFF2201991000FFF741FEFEBD08004A
:102300000021A7E710B50400C00203D595D3392FEB
:1023100001000000BC2100A000020000B8A7345D4D
:1023200001210220FFF7A0FFA00207D50121032011
:10233000FFF79AFF01210420FFF796FF200203D543
:1023400001210520FFF790FF01200007844205D0FE
:102350004010844202D0401084421AD1FF208206ED
:10236000A11808D0891804D0C206891804D10C20FD
:1023700002E00B2000E00A20FFF774FE022805D0DF
:10238000032803D0042801D0052802D10121FFF73A
:102390006BFF10BDF8B504000D0017000800FFF733
:1023A0008CFE0600002C03D0012C01D0022C22D17F
:1023B0003B1F01277F0547F366EC04030C0C141E3A
:1023C000102002F0ABF8102002F0BAF8012000054E
:1023D0000FE0202002F0A2F8202002F0B1F838002F
:1023E00007E0802002F09AF8802002F0A9F801208E
:1023F000C00500F0EBFB331F47F344EC061D1D1D29
:102400001D0E041D2800FFF7D2FE002801D1012176
:1024100000E000210D200CE02800FFF7C8FE002896
:1024200001D1012100E000211C4AA0008018C078E1
:10243000C00800F03AFFFF2229001000FFF7C1FD9D
:10244000F8BD70B504000020002C03D0012C01D091
:10245000022C20D1124D00222868462104F37FFB74
:10246000002817D128680022082104F378FB0028EF
:1024700010D1022C06D0012C04D01EF09EEF0028B3
:102480000AD007E005F0DEFA002803D105F0B6FC1B
:10249000002801D1002070BD012070BD205700B080
:1024A000800E0004022010B5FFF7CDFC02F01CF8EE
:1024B000002804D0012000F0B0F900F0C0F900219C
:1024C000082208000B0004F038F910BD022010B5F6
:1024D000FFF793FC10BD70B50020FFF752FD04001C
:1024E0000020FFF7D0FD05000120FFF7ACFC854977
:1024F000086A10221043086283499003886002F042
:102500003FF8082000F06BFB2A0021000020FFF7B5
:1025100019FD70BD70B51EF03FFD05003109289111
:1025200001000000B82300A0000200004C4F8AE028
:102530007B480068C00710D00020FFF7D6FF7D2041
:10254000C00003F038FA002037F317F8040002E067
:10255000002037F312F8A042FAD028001EF02AFD1E
:1025600070BD002010B5FFF716FD04000020FFF736
:1025700094FD020021000020FFF762FD10BD10B5A0
:102580001EF014FD040066480068800701D5FFF7BF
:10259000E8FF20001EF00EFD10BD002010B5FFF773
:1025A000FAFC04000020FFF778FD02002100002063
:1025B000FFF729FD002800D0012010BD38B501F03B
:1025C0009DFF002826D1401E00905548554C0068BC
:1025D000C00711D06068401C18D0A068FFF783FCCA
:1025E000514947F36AEB00906168884201D30020AB
:1025F00000E0081A009009E0684603F0E4FF0028B4
:102600000CD000986060FFF76AFCA0602178009809
:10261000884203D3FFF7C1FF002801D1002038BD55
:10262000012038BD3E4810B50068C00705D0FFF74F
:10263000C5FF002801D0012010BD002010BD0020E2
:1026400010B5FFF7A8FC04000020FFF726FD0200EC
:1026500021000020FFF7E8FC10BD10B5FFF79DFF3B
:10266000002804D0002004F016F9002801D1002031
:1026700010BD012010BD2A4810B5006880070DD498
:102680002A480078022809D1FFF7CCFF002805D09E
:10269000FFF7E3FF002801D0FFF7D1FF10BD70B5B1
:1026A0000020FFF778FC04000020FFF7F6FC20492B
:1026B0000500096817204883082000F091FA01F00E
:1026C00061FF01F053FF154901208004C8602A0012
:1026D00021000020FFF75EFC0F48016A10229143A1
:1026E00001620120FFF793FB70BD0D4810B5006833
:1026F000C0070FD1FFF762FF00280BD01EF056FC79
:102700000400FFF75BFF002801D0FFF7C8FF20009F
:102710001EF050FC10BD000000280080009000A8B2
:10272000085700B04C5700B0E204000035C5DDC4C6
:1027300001000000B42500A00002000055B754902D
:10274000DC5800B084EA0004F8B51EF039FCBE4D38
:102750000700286800282ED103F0E9F8402118204E
:1027600003F05AF803F0D5F8B84E30690221084357
:1027700040084000306101F0E1FE040001F0DEFE9F
:10278000A042FBD03069032108433061B04A906811
:102790000121490688439060AD4A803AD068884359
:1027A000D06003F0C4F80821332003F040F803F0B0
:1027B000B0F80120286038001EF006FCF8BDF8B51E
:1027C0001EF0FEFBA04D00902868012835D103F0D3
:1027D000AEF80821332003F01FF803F09AF89C4963
:1027E0008039C868012676063043C860984FB868BB
:1027F000B043B86095490869022210434008400080
:10280000086101F09BFE040001F098FEA042FBD09D
:102810000A2003F0DAF8B8683043B8608B490869D9
:1028200080088000086103F082F84021182002F03F
:10283000FEFF03F06EF80020286000981EF0C4FB35
:10284000F8BD10B504000120FFF7AFFB002C05D147
:1028500080490968CA0705D0490603D5062801D072
:10286000FFF7F2FC10BD012010B5FFF79EFB062814
:1028700003D001F04DFE0028FBD110BD082010B59B
:10288000FFF7F5FA10BD082010B5FFF7CAFA10BD22
:1028900038B5002000900120FFF787FB04000120DD
:1028A000FFF705FC05000420FFF7E1FAFFF787FFBB
:1028B00001F0C0FE202000F0A6F901F08FFE68466E
:1028C00005F0C4F80121644A4906002800D00098A8
:1028D00091602A0021000120FFF748FB38BD10B5A8
:1028E0001EF06EFB04005B480068400702D5002024
:1028F000FFF7CEFF20001EF067FB10BD012010B5D2
:10290000FFF753FB04000120FFF7D1FB0200210079
:102910000120FFF782FB002800D0012010BD08B580
:10292000684605F08FF8002803D0FFF7E7FF00287E
:1029300001D1002008BD012008BD46481592EB28B2
:1029400001000000B02700A000020000A15FEA2DF6
:1029500010B50068400705D5FFF7EBFF002801D050
:10296000012010BD002010BD70B50120FFF727FB2E
:1029700004000120FFF7A5FB05000020FFF71FFB67
:10298000A04204D02A0021000120FFF761FB70BDA6
:10299000354810B50068000709D4FFF7D8FF0028B4
:1029A00005D0FFF7B5FF002801D0FFF7DDFF10BD10
:1029B00010B501F01DFE03F020F810BD10B501F0B8
:1029C00017FE03F01AF810BD38B500200090012062
:1029D000FFF7F5FA04000120FFF773FB0500202044
:1029E00000F012F901F027FE204901204006C860DE
:1029F000684605F035F8002808D101F00BFE05F017
:102A000036F800280AD0FFF7A9FE07E00098002852
:102A100002D1FFF7CDFF01E0FFF7D0FF2A00210030
:102A20000120FFF7CBFA0420FFF705FA38BD0E4866
:102A300010B5006840070FD4FFF77BFF00280BD0CC
:102A40001EF0C8FA0400FFF774FF002801D0FFF75A
:102A5000BBFF20001EF0C2FA10BD0000585700B0A6
:102A60000028008080210080085700B0009000A856
:102A7000202010B5FFF705FA10BD202010B5FFF794
:102A8000DAF910BD70B501F059FE01F073FE0128AE
:102A9000FBD10220FFF793FA04000220FFF711FB9D
:102AA00005001020FFF7EDF955490120400488602A
:102AB00001F032FE042000F0B0F801F01BFE2A0005
:102AC00021000220FFF75CFA4E480068800601D41E
:102AD00001F047FE70BD10B51EF07CFA04004948B5
:102AE0000068C00602D50020FFF7CCFF20001EF0D2
:102AF00075FA10BD022010B5FFF761FA040002203C
:102B0000FFF7DFFA020021000220FFF790FA002809
:102B100000D0012010BD10B505F08EF9002803D0BB
:102B2000FFF7E8FF002801D1002010BD012010BDF3
:102B3000344810B50068C00605D5FFF7ECFF002843
:102B400001D0012010BD002010BD70B56FD915D97E
:102B500001000000AC2900A0000200006646E870F9
:102B60000220FFF736FA04000220FFF7B4FA05004E
:102B70000020FFF72EFAA04204D02A0021000220F4
:102B8000FFF770FA70BD244810B50068800609D4BC
:102B9000FFF7D8FF002805D0FFF7B6FF002801D0C7
:102BA000FFF7DDFF10BD70B50220FFF712FA040039
:102BB0000220FFF790FA0500042000F02FF801F042
:102BC000ACFD01F0A1FD134901204004C8602A00BA
:102BD00021000220FFF7FCF91020FFF736F901F081
:102BE000AEFD01F0BEFD70BD0B4810B50068C0061B
:102BF0000FD4FFF79AFF00280BD01EF0F5F9040060
:102C0000FFF793FF002801D0FFF7CDFF20001EF053
:102C1000EFF910BD009000A8085700B036494A6A85
:102C200002434A62CA6A0243CA62012070473249BB
:102C30004A6A82434A62CA6A8243CA620120704772
:102C40002D4940310868086070472B49C04308632C
:102C500001207047284B80339969DA69090112090C
:102C600009091201002804D00520400701430A2069
:102C700003E005200007014305200243D961DA6122
:102C800070471E48016B022291430163016B402291
:102C900091430163016B042291430163704717481C
:102CA000006B810701D500207047400601D5022046
:102CB00070470120704710B502F00BFE002804D0C9
:102CC0000F498869CA0B9043886110BD10B502F0A6
:102CD00000FE002803D00A488069C007C00F10BD5D
:102CE00010B502F0F6FD002804D0054880690121E6
:102CF0000904084010BD00008022008000210080EF
:102D0000C02A008070B5002402F0E3FD002808D03E
:102D1000FFF7E6FF002803D1FFF7D8FF002800D017
:102D200001241EF061F90500002C07D102201EF0DD
:102D30002FFC002802D01449012008600021012046
:102D400001F086FB28001EF053F9002070BDF8B595
:102D500001200E4900F03AFF0B4E00244CB1B5069D
:102D600001000000A82B00A00002000092AE56CD8A
:102D7000361D0127FF0308E02104090C3943012017
:102D800000F02EFF70598047641CA5007059002880
:102D9000F2D103F041FF04F0B6FEF8BDB46300B019
:102DA0007F8B0000FF4841680068814201D101200B
:102DB000704700207047FB4810B541680068012249
:102DC00092070B00040093439443A34205D11140A2
:102DD0001040814201D0012010BD002010BDF249F9
:102DE00000204861F14A5060EE4A1060C8607047A8
:102DF000EC48416801600168EB4841610021C16015
:102E00007047F8B504000D0016001EF0F7F8070033
:102E10000021032001F026FB002C0ED0002D0CD049
:102E200032002900200046F372ED032001F03CFB44
:102E300038001EF0E7F80020F8BD38001EF0E2F878
:102E4000FEE7D94810B58068342146F3FCED10BD8B
:102E5000F8B50C000700002600281CD0D24D2878B9
:102E6000012818D1012C02D11EF0C8F8060000215B
:102E7000032001F0F7FAFFF733FF00280DD0FFF72A
:102E8000AEFF00202870032001F00EFB012C02D1C0
:102E900030001EF0B7F80120F8BD1EF0AFF88446F0
:102EA000FFF789FF002804D060461EF0ABF8002031
:102EB00013E0E868401CE860BA4800680C21000490
:102EC000000C4143BA480818002105000A000B0015
:102ED0000EC060461EF096F82800002800D1FEE7DC
:102EE000FA78082A01D8121D00E00C22390046F3B6
:102EF0000EEDAC4800F045F9AE49886B0122104355
:102F00008863032001F0D0FA012C02D130001EF0BA
:102F100079F80020F8BD1CB50024E443A64801223E
:102F2000032101AB009400F391F901980028F5D03A
:102F30000128F3D100F062F9F0E710B51EF05EF859
:102F400004000021032001F08DFA9848001D00F0D4
:102F500018F99849C86BCA0D1043C863032001F0E3
:102F6000A3FA20001EF04EF810BD00281C63F0BD2F
:102F700001000000A42D00A0000200008B5688BDB7
:102F800010B508D00078012805D1FFF73BFFFFF707
:102F9000DEFF002010BD012010BD10B5017804290E
:102FA00001D0012010BD85494A68521C4A60096958
:102FB000002901D0884701E0FFF7C9FF002010BDBC
:102FC0000EB504216B461970012159700221D97088
:102FD000017819714078587178484168491C4160FE
:102FE000FFF7B5FF01216846FFF73CFF00200EBD4B
:102FF000F0B587B01EF00CF807007548FFF722FE09
:1030000074490120C0048860C412200001F0C2FA93
:10301000200001F0CBFA6D486F49283001606F49FC
:1030200001616F494160654C0026266101220A203A
:103030000592020003906B48012189026B460496B9
:1030400007C300236148684AA83868A101F304FB5C
:10305000002802D0012007B0F0BD5C4865A100F354
:103060008DF800210320267001F006FAA068644D57
:103070000068A84207D1FFF73DFE00280AD0FFF7FD
:1030800043FE002806D0FFF7E6FEA0680560FFF7C4
:10309000B0FE0DE0FFF7B6FE4948466001206B46E2
:1030A0001874DE742070002104A8FFF7DBFE267080
:1030B000032001F003FA38001DF0AEFF0020CAE73C
:1030C00000290CD005280AD2042802D13B4801610E
:1030D00003E03E4A80002832115000207047012052
:1030E000704770B5FFF706FE344C002802D0002070
:1030F000207014E01DF08CFF2F4D060008E0E16801
:10310000002910D02D48491E1430E16000F043F82A
:10311000606969688842F2D130001DF07DFF3A494C
:103120003848086370BDFEE7234801684068814263
:1031300001D0012000E0002021494A6809688A4244
:1031400001D0012100E000210843012148407047DF
:1031500001001E48002210B500F312F910BD70B531
:10316000040016480178012901D001210170E00115
:103170000CD5254925480863CD0D28006A3A6036EC
:1031800001000000A02F00A0000200007FBE36005A
:1031900001F010FA280001F007FA0120FFF7E2FF22
:1031A000E00401D5FFF7A7FF70BD026801231104F9
:1031B000090C9B07491C1A4011430A009A43082A2C
:1031C00001D359401940016070470000001300C04E
:1031D00090C500B0801300C0081300C0802A008092
:1031E000D00101B000100001009000A8E52D000002
:1031F000BF2D0000A32D000028FD00B04F2D0000C2
:103200004963635461736B0049636351466C616742
:1032100073000000CDAB0000FFEFFFFF80220080B5
:10322000FFFFFFFEF8B51DF0FDFE144C144E154DCA
:1032300007001BE0FFF768FD002803D012490020BB
:10324000087017E070680C230004000C5843401904
:103250000CD00178052905D28A00A258002A01D095
:10326000002902D12168884700E0904770683168E2
:103270008842DFD138001DF0D9FEF8BDF80101B059
:10328000801300C0881300C090C500B0F8B50400DA
:103290000D007648764A01681268012090470028A0
:1032A00048D001202700734E0100103F0200A140CA
:1032B000BA40704B4036002D2ED00325082C07D283
:1032C0001E68620095409040AE4306431E6009E0D0
:1032D000102C0AD25E68083C620095409040AE43D4
:1032E00006435E60986888431AE0182C07D2F36999
:1032F00079008D408840AB430343F36109E0202C03
:1033000007D2336A183C61008D408840AB430343C9
:103310003362706A904307E0102C03D29868084328
:10332000986002E0706A1043706253490120096896
:1033300088470120F8BD70B504004C484C4A0D0088
:10334000016812680120904700281AD00122102C31
:1033500008DA4849C868A2409043002D00D01043C5
:10336000C8600AE0434B4033986A103CA240904347
:103370000100002D00D0114399623F4901200968E6
:10338000884770BD10B504003848394A08FD6C34D0
:10339000010000009C3100A00002000001A591B0D6
:1033A000016812680120904700281AD00122102CD1
:1033B00006D235488168A24011438160006907E068
:1033C00031484030416A103CA24011434162C06A1A
:1033D000E0402E49C4070968E40F01208847200017
:1033E00010BDFF2010BDF8B52548264A01681268B7
:1033F00001209047002840D0254801210903C160E1
:103400002148016A20484030C06B0F043F0C000681
:10341000000A074300241F4801261EE04068E2001E
:103420008158002918D010184068320082403A4272
:1034300012D005008847102D06D21349086A3200C1
:10344000AA409043086207E00F494031C86B103D25
:103450003200AA409043C863641C0E4801788C4235
:10346000DCD30B48816801221203114381600749B4
:103470000120096888470020F8BD0120F8BD000040
:1034800038E5000440E500040002009044E5000433
:10349000009000A85C5700B0F8B50025FF4F387DBC
:1034A000012802D97D2000023860787DC00709D04C
:1034B00002F094FE3968884204D2787D40084000CA
:1034C00001257875787D400731D502F0A3FE796833
:1034D0000400FB26814220D8F868A0421DD80520B0
:1034E00002F031F8A04218D8052002F02FF8A042CF
:1034F00013D8012002F027F8A0420ED8012002F0D4
:1035000025F8A04209D8022002F01DF8A04204D8F4
:10351000022002F01BF8A04201D9787D04E0787DFA
:10352000C10701D0810702D43040012578752800F9
:10353000F8BD70B51DF080FD0500FFF7ADFF002858
:10354000FBD1D64C607DC00706D002F01BFE0028E0
:1035500002D1012002F079FC607D800706D502F0DF
:1035600014FE002802D1012002F0F1FC607D40072A
:1035700009D502F0E8FD002802D1012002F096FDF5
:10358000607D400706D402F0DEFD002802D0002056
:1035900002F08CFD607D800706D402F0AB21A0EC28
:1035A00001000000983300A000020000F54D2F0D2F
:1035B000F6FD002802D0002002F0D3FC607DC00799
:1035C00006D102F0E9FD002802D0002002F047FCFD
:1035D0006068002101F0B5FFA068002101F0B7FF8D
:1035E000607DC00709D120687D210902884201D190
:1035F000012000E0002002F01BFEE068002101F045
:10360000A3FF2069002101F0A5FFAA49002008704E
:1036100028001DF01FFD002070BDF0B506000D0054
:1036200087B0A3490027182201A846F302EAA04C5C
:10363000607D000702D4012007B0F0BD002E02DA41
:103640007600760801273300042646F376EB08520D
:1036500005142044512C385202F0CAFDA84204D26D
:10366000607D40084000607503E0617D01200143FA
:10367000617525603DE002F0D7FDA842607D02D271
:10368000FB21084000E030436075656031E002F0E6
:10369000CBFDA842607D02D2FB21084000E0304310
:1036A0006075A56025E002F0BFFDA842607D02D2F2
:1036B000FB21084000E030436075E56019E002F04E
:1036C000B3FDA842607D02D2FB21084000E03043F8
:1036D000607525610DE0280002F0A2FD0028607DE4
:1036E00002D1FD21084001E002210843607500E09D
:1036F00025756F49182201A81DF0FAFA002802D09A
:103700006C4901200870002F01D0FFF71CFF00203A
:1037100092E7FEB500207D24E401270001250194F5
:10372000009011F34CFD8821694306000291405C32
:1037300002282FD12804000C1CF3A9FC0099491C75
:103740000906090E00910279012A02D18179012925
:1037500004D0029989194B7D092B08D102997D204B
:103760008919C9788001002910D140100EE0052A7E
:1037700005D18079052802D17D20000201E07D205D
:10378000C001C978002901D17D208001844209D877
:10379000040007E0012805D17D20C0018442F7D94B
:1037A0002000F5E76D1C082DBBD30098BBE1F6F0B7
:1037B00001000000943500A000020000ECB5F17D8E
:1037C000012805D97D200002844200D92000040090
:1037D0003E48C06900280BD07D200002844200D9F9
:1037E000200004007D20C001874200D93800070076
:1037F0003748807902280BD17D200002844200D90D
:10380000200004007D20C001874200D93800070055
:1038100001990120FFF70BFF39000320FFF707FF95
:1038200021000220FFF703FF0020FEBD10B5254C4C
:10383000607D000734D502F0C2FC002802D10120CF
:1038400002F019FC02F0B8FC002802D1012002F0BD
:10385000D3FB02F0B7FC002802D1012002F08AFC61
:103860001C4801680420FFF7E2FEFFF75CFF7D21A2
:10387000490160680C008A00904201D914001100CF
:103880000720FFF7D4FE21000620FFF7D0FE0E48E8
:103890000078002804D001200021C007FFF7C7FEF0
:1038A00010BD084870B5407D000724D57D24E40193
:1038B000062001F05CFE050002F059FC002811D042
:1038C0000AE0000028CC00B0645700B008D700041C
:1038D000D0D1000494E5000402F0B0FCA04200D373
:1038E00020000400A54206D20021200001F033FE92
:1038F00007490120087070BD06480822417D114328
:10390000417570470348F722417D1140417570476A
:10391000645700B028CC00B0002010B5FEF795FB2E
:1039200004000020FEF713FC020000202100030029
:1039300000F08CF80120FEF788FB04000120FEF760
:1039400006FC020021000120002300F07FF8022085
:10395000FEF77BFB04000220FEF7F9FB02002100CA
:103960000220002300F072F810BDF8B5012633499B
:10397000334F082A15D0092A43D1002B41D10868BA
:103980008C0C2043086001210D20FFF79DFC0021D5
:103990000D20FFF7EEFC7869A0437861B869A04379
:1039A00022E0002B2DD1820026481418E078C008B0
:1039B000192801D3002624E00B6801255069E61977
:1039C00001000000903700A000020000185D4FC009
:1039D0002A00824013430B602900FFF77FFCE07848
:1039E0000121C008FFF7CFFCE178C808102807D2F2
:1039F00079698540A9437961B869A843B8610AE04B
:103A000014484030026B4906090F8D40AA430263F7
:103A1000416BA94341633000F8BD0123AFE70023A8
:103A2000ADE70E4810B50068002804D00022110050
:103A3000032002F03DF810BD084810B500680028CA
:103A400004D000220121032002F032F810BD000052
:103A50004023008000020090205700B0ACC500B0A9
:103A60000A2A10B511D00B2A0FD00C2A0DD1002B29
:103A70000BD100210F20FFF731FC0448426981017E
:103A80008A43426182698A43826110BD00020090CC
:103A90003EB50C2204006F4841686846FFF7EDF917
:103AA000A00702D5019805F066FAA00603D56B467B
:103AB000187A05F071FA3EBD10B54078FFF7E8FFBF
:103AC000FFF777FA002010BD3EB5040002E00120A8
:103AD00001F0D5FFFFF7A2F90028F8D002206B46CD
:103AE000187000205C709870D87001216846FFF74C
:103AF000EBF93EBD574808B541680122891C68466C
:103B0000FFF7BBF96B46187808BD10B50400FFF746
:103B1000F1FF002802D12000FFF7D6FF10BD10B53D
:103B20000C0001004B4824220068FFF7A6F9002C86
:103B300002D02000FFF7E9FF10BD464910B5096823
:103B40002422FFF79AF910BD01B54248012200680E
:103B500069460830FFF791F908BD01B53D480122DB
:103B6000006869460930FFF788F90820FFF7CDFFA4
:103B700008BD11B581B0374C0122216868460A3171
:103B8000FFF77BF96B4618781979884208D02068CE
:103B900001220A3001A9FFF770F90820FFF7B5FFED
:103BA0001CBD01B52B480122006869460B30FFF7A8
:103BB00064F908BD01B527480122006869460C3048
:103BC000FFF75BF908BD01B522480122BA2D447503
:103BD000010000008C3900A000020000DF444D9D70
:103BE000006869460D30FFF752F908BD13B504228D
:103BF0001D4C694620681030FFF749F920680422FF
:103C0000143001A9FFF743F91CBD01B51648012284
:103C1000006869461D30FFF73AF908BD01B5124842
:103C20000122006869461E30FFF731F908BD01B571
:103C30000D480122006869462030FFF728F910205E
:103C4000FFF76DFF08BD084808B5416801226846C6
:103C5000FFF71DF96B46187808BD034910B5496890
:103C60000C22FFF714F910BD685700B0FB4A10B5DD
:103C70001068437804781802F94B2043984203D027
:103C800010680170090A417010BDF4498000091FD5
:103C900008580221593002780A430270F14A507CD8
:103CA000084350747047ED48F8B524300188EE4A57
:103CB00091421DD002001288012441889440EB4FAC
:103CC000012904D1FD68A5432C43260003E0FE68CA
:103CD000A64334432500E6498088096846F340E856
:103CE0008905800A0843FD6001D01DF0FAEAFE60F4
:103CF000F8BDDA4A8000121F105840308183D2E7A5
:103D000070B50500DB4C09D10022DB48110046F3F9
:103D100079F80028206001D020210181A8002158D5
:103D2000002908D00A898918CC4A121F1258116735
:103D300020580821017370BD70B50400C068C74DDC
:103D4000012180002D1F285800264166E068800070
:103D500028584666E068800028580B23D83002684F
:103D60009B021A430260E068800028580823D8307C
:103D700002681A430260E068800028584B05D8307A
:103D800002689A430260E06880002858D8300268D0
:103D90000A430260E068FFF7B3FFE168072089008B
:103DA00069580866E068FFF770FFE068002802D1F4
:103DB000296817200866E06880002858AA498666A6
:103DC000E068002804D1AB4A08321180518091800C
:103DD000A84A0B0A0E321170537091705F134B2D6D
:103DE00001000000883B00A0000200002BACF32083
:103DF000090AD17081000E3A5158002901D00D21D5
:103E000000E00C21FFF77FFFE0689F498000091F59
:103E10000E50E0680521820095488258D170E16813
:103E2000890041588E70E168890041580E71E1683F
:103E3000890040584671002070BDF8B50400142276
:103E4000914F62439248A5003F1F0026032911D1DC
:103E5000002C0AD146F342F820213860018101008C
:103E60002431002002F061FE14E0101846F336F809
:103E700078510FE0052904D1002C08D0844814386B
:103E8000F3E7022901D0082904D1002C2ED146F3F2
:103E900025F838607859002827D0002C25D13868BB
:103EA000734C0189411848780B7802021A43241F89
:103EB0002068C030828248780A7803021343201DAC
:103EC0000268D5780122AA40521E9A180368006839
:103ED000DB781A418270CA7820688030C2812268FB
:103EE0003000D1660221FFF70EFFF8BD684814309C
:103EF000BBE7012270B5D2079378634C80000C3C7D
:103F000022588A422FD0002921500DD000200122B2
:103F1000850065598D4204D0461C1500B5401D42F0
:103F200021D1401C0128F3D351480C3802788A4231
:103F300019D00170514A3630002909D0C1788378F0
:103F40000802184390420ED001F0ADFD012008E0B8
:103F50004178037808021843904204D001F0A3FD91
:103F60000020FEF7D1FE70BDFFB581B004000298BD
:103F700000287BD0E068002878D1029D0498E88072
:103F800020202881121D2035100A2A706870002018
:103F90000126A8701DF082F80090E0680021FFF76C
:103FA000A8FFE068384F8000083F385800280ED03E
:103FB0000498032805D1291D002002F0D0FD002817
:103FC00005D100210B2208000B0002F038FC0498F8
:103FD000022874D0032821D005285BD0082817D1E7
:103FE0000320E870E06814214143294804DA9F6CFB
:103FF00001000000843D00A00002000032542D505A
:104000000818029945F39DFFE068244A8100121FB9
:104010005258002A06D17958002903D10221FFF70E
:1040200016FF002600981DF047F8300005B0F0BDDF
:10403000FE20E870291D002002F09BFD0028E068AA
:104040000BD01423584317494018029945F39BFF9E
:10405000E16800208900785006E0142141431148AE
:104060000818029945F36DFFE0680C4A8100121FA1
:104070005258002AD6D179580029D3D10321CEE74E
:104080002FE026E00C6400B0DCFE00008000008021
:10409000FFFF000000020090A8C500B0286400B037
:1040A000245900B0D0FC00B00220E870E068142170
:1040B0004143FE480818029945F343FFE068FC4A73
:1040C00081005258002AADD179580029AAD1052182
:1040D000A5E70420E870E06814235843F34940182A
:1040E0008FE70020A2E710B504001CF0E1FFF04AC2
:1040F000A1001C3AEF4B54586366525817231366BD
:10410000EB4B00220C3B5A501CF0D6FF10BDFEB505
:1041100084000600E64800251C3801590D66025946
:10412000012151660059E24F45663F1D385900286C
:1041300002D045F351FE3D51DC4914227243DC4F5D
:104140000B0014333859D31801930B00143BD318C8
:1041500056180028009307D045F33EFE04E03000D7
:1041600045F3C6FE3851F7E7300045F32AFF002833
:10417000F5D105E0009845F3BBFE385145F32CFE20
:10418000009845F31EFF0028F4D105E0019845F39F
:10419000AFFE385145F320FE019845F312FF002889
:1041A000F4D13D51FEBDF8B504001500C0481C38DF
:1041B0000600083E15294DD010DCBD4F091F002216
:1041C0003F1D0B0045F3EAED11DEDFDFDFCA98DFAC
:1041D000A3DFAEAEDFDFDFDFAA2ADF00B448123094
:1041E0001C293ED009DC17295ED019297ED01A2956
:1041F0002FD11CF05DFF756129E01D29F4E2733DAC
:1042000001000000803F00A000020000C6BC93ED4A
:1042100040D01E294DD0202973D04629F2D1E06824
:104220000028EFD1A7480068002800D00120F8BD81
:104230001CF048FF0500E0688100795800290FD183
:10424000FFF77CFDE06881007958002903D1280040
:104250001CF03CFFEAE7002802D10121FFF767FDCF
:1042600028001CF033FF98E0E168890040580221E3
:1042700080680840F8BD69782A7809021143017006
:10428000090A4170E978AA78090211438170090A84
:10429000C17082E041780278090211432970090A4D
:1042A0006970C178827808021043A870000AE8702B
:1042B00073E0E0680121FFF730FE6EE0814E834A33
:1042C0000C3630880F2801D99042AFD1E068002821
:1042D00063D1A8883080E98871802B899042B380AF
:1042E0005BD0FFF778F87A4B1A683088012181405B
:1042F0000A431A600006000E0121FFF717F84CE090
:1043000000E043E0E068002847D107E0E0680028CB
:1043100043D16C490C39096800293ED0FFF7EDFE06
:104320003BE0E168002938D100681721016634E0DC
:10433000E068FFF7F6FE30E0E16800290FD1717800
:1043400000290CD0634900685E4BC0308182E06870
:104350008000183B18580170090A41707270E068BB
:1043600081007958002918D00121FFF7E0FC14E002
:10437000E068002811D152481438816814308068F0
:1043800009184F48143080680818F8BDE0684D4996
:10439000800008310D5000E035610020F8BDF8B50F
:1043A0000025A80047491C390A581023566EF243CD
:1043B0001A430B585A6608584030007E002D7ED1B3
:1043C0000024F1073FD040073DD43E490022091D9B
:1043D00008680389C418637827781B023B433E4F63
:1043E000BB4204D901212800FFF7A1FC2AE00223E7
:1043F000037334480021001D0768072208000B00E2
:1044000002F031FA0020FFF799FC2E48F9B1E98358
:10441000010000007C4100A00002000023EBCEEA76
:10442000001D0068002803D001212800FFF789FC47
:104430003889001D3881E078FE2801D10120E07024
:10444000E078F8802348244928307861E3780831FF
:104450000C6800223900A0470124B00754D51E4F34
:1044600000213868002816D001894118091D002054
:1044700002F089FB002802D00120391F086016488D
:10448000243801693868002901D0884701E045F3E4
:10449000B7FC00203860230400211B0C0622080012
:1044A00002F0EBF90B4C200045F39FFD002809D1E9
:1044B000200045F39AFD002804D1200045F395FD26
:1044C000002821D00449091F0968002916D00B22B1
:1044D0000EE02DE0D0FC00B0246400B0EFFEFFFF42
:1044E000FFFF000040230080DCFE00000504000008
:1044F000002108000B0002F0C0F905E0C0880106A9
:10450000090E2800FFF7B7FC0C490868006EC006CA
:104510000ED5F0060CD50A00012010321060096893
:10452000072008660021092208000B0002F0A5F907
:104530006D1C012D00DA3EE70120F8BD086400B0D3
:1045400070B505000C0009D102E0012001F0C9FAA4
:1045500028001DF095F80028F7D011E0641E28000F
:104560001DF08EF800280BD1012001F0BAFA002CC2
:10457000F4D11249A8000A58521C0A50002070BDFC
:10458000012070BD0E4B30B501215A6881400A40B0
:104590008000002A05D1094980310A58521C0A506E
:1045A000FEE7064C803C2258012A02D15D688D430B
:1045B0005D60521E2250012030BD0000C0CC00B012
:1045C000C02A008030B500240D4B2200D5005D5973
:1045D000002D0ED1D40018510A4B9200D318D96087
:1045E00000030321000B8907401807495118086090
:1045F00030BD521C042AE9DB012CF9D0FEE7000093
:10460000C0CD00B0C09B00A8009800A8FF4840683B
:10461000016F1022114301677047FC488649AF07BC
:1046200001000000784300A000020000D70370578B
:104630004068016F10229143016770470020704766
:1046400070477047F6484068816B090C01D0002024
:104650007047816B490504D5816B0904090FFBD1B3
:1046600000E0806B01207047ED484068406B704768
:10467000EB4949684A6E82434A667047E84949688F
:104680004A6E02434A667047E5494968CA6E02436A
:10469000CA667047E24949688A6E02438A66704773
:1046A000DF484068806B8007C00F7047DC48406877
:1046B000C030416837229143416041680122114373
:1046C00041607047D6484068C03041680822914335
:1046D00041607047D2484068C030416808221143A9
:1046E00041607047CE484068C030016801221143E4
:1046F00001607047CA484068C030016849084900F5
:104700000160704770477047C548406841680122A2
:104710009204114341608168121191438160FF301E
:10472000401C41684908490041607047BC484068E6
:10473000C11DF9314A6801231A434A6041689A044D
:104740009143416081681211114381607047B44800
:104750004068FF30401C416802229143416070472D
:10476000AF484068FF30401C41680222114341605D
:104770007047AB484068FF30401C0168012211437C
:1047800001607047A6484068FF30401C0168490836
:10479000490001607047A2484068FF30401C016832
:1047A00008221143016070479D484068FF30401C5B
:1047B0000168082291430160704799484068C03001
:1047C00001680122D2071143016070479448406894
:1047D000C03001684900490801607047904840684E
:1047E000FF30401C01680122D2071143016070476D
:1047F0008B48406880680003C00F70478848406855
:1048000081680122D2041143816070478448406866
:10481000FF304130416A8908890041627047804811
:104820004068FF304130416A042291431DB46CC995
:1048300001000000744500A000020000CEFBAE277E
:10484000416270477B484068FF304130416A042232
:1048500011434162704777484068FF304130016A38
:10486000012211430162704772484068FF304130B5
:10487000016A49084900016270476E484068FF308C
:104880004130016A0122D207114301627047694831
:104890004068FF304130016A4900490801627047B1
:1048A00064484068FF304130806A0005C00F70479F
:1048B00060484168092080010818C16901229203FB
:1048C0001143C161C16952001143C161C169520004
:1048D0001143C16170475748416809208001081899
:1048E000C169012292031143C161C16952001143A0
:1048F000C161C16952009143C16170474D48406830
:10490000816810221143816070474A48416809203C
:1049100080010818C169012252041143C161C169B3
:10492000D2001143C1617047424905224968D20152
:104930008918CA69382340079A43800E0243CA6126
:10494000C86901221043C86170473A4A0023D35610
:104950001F21C0181F2800DA01000806000E70474A
:104960000D2804D8334900228A56002A00DBECE7E0
:104970007047F0B593B0304C2068030960681B01A4
:104980000109A06809010209E0681201000900019B
:10499000C01C12902069491C050960692D0100099D
:1049A0000001401D1190A069921C00090001801DAA
:1049B0001090E0692D1D0609206A360100090001EA
:1049C00008300F90606AF61D0009000109300E9052
:1049D000A06A000900010A300D90E06A0009000198
:1049E0000B300C90206B000900010C300B90606BB9
:1049F0000709A06B3F01000900010D300A90E06B30
:104A00000D37000900010D308646F020814310313A
:104A100009911299854340350895119D8243814340
:104A200020323031854350350795109D83438543AF
:104A3000944603E0705700B0C0CF00B0177E5E52BE
:104A400001000000704700A0000200003A13109A15
:104A5000503506950F9D0C9A8543503505950E9D52
:104A600082438543503504950D9D50328543503522
:104A700003950B9D02928543503501950A9D724620
:104A8000854382438643874350351F2000020095AB
:104A9000132583432D025B192360099B81438343C4
:104AA0005B196360634683435B194919A360E16046
:104AB000089D50320B218543490296466A182261AF
:104AC000079D503685436A186261069D864385437B
:104AD0006918A1610321C9027218E261059D50376E
:104AE00085436A182262049D874385436A1862627F
:104AF000039D85436A18A262029A82435218E262B9
:104B0000019D85436A1822637A186263009D85437C
:104B10006A18A26372468243511800250700E163B8
:104B2000AE00A059C004C00EFFF719FFA159C0067E
:104B3000C00CB9436D1C01432D062D0E102DA15143
:104B4000EED313B0F0BDF0B588B0FF490A6A120683
:104B5000130F4A6A1206120F120113438A6A1206D1
:104B6000120F12021343CA6A1206120F12031343E2
:104B70000A6B1206120F120413434A6B1206120F2D
:104B8000120513438A6BC96B1206120F090612062F
:104B9000090F134309070B43EC494A68D11DFF3144
:104BA000FA310C690B610C6B0B630924A401121917
:104BB000D468D360E44BDC682406260F04969C6816
:104BC00035012406240F03942C431D692D062E0F56
:104BD000350237032C43059700962600A6465C69EC
:104BE0003E432406240F0194240426430694019C8A
:104BF00027059C693E432406240F2506DC692E43C5
:104C00002406240F24072643029607965B68BC46B9
:104C10001B061F0F039B1E013B003343049E059F91
:104C200036023343009E3B4336041E4367463E43F1
:104C30002E432643072803D0062801D00A2809D18D
:104C4000906802989060C8680798C8608B18DC412B
:104C5000010000006C4900A000020000FD0A12C71C
:104C6000C86ACE6208B0F0BD0528FBD19068019EED
:104C7000704636033043069E304366463043284331
:104C800020439060CA68C860C86A069803436046BB
:104C900003432B432343CB62E4E7F0B5AF480168FD
:104CA000426809071207090F120E11438268036B4D
:104CB0001207120D1143C2681207120C1143026948
:104CC0001207120B114342691207120A114382693B
:104CD000120712091143C2699446120711439646FE
:104CE000026A1407426A240F1207120E1443826AE2
:104CF0001207120D1443C26A1207120C14431A074A
:104D0000120F15042C43456B26002D072D0A2E4348
:104D1000856BC06B2D072D092E4300070643904875
:104D20004568E81DFF30FA30476841608768866053
:104D300016053443120614431A071443092292013C
:104D4000AA18136811605368546062461207120F64
:104D50001301134314022343140323431404234372
:104D6000140523431206134372461343426A4162F9
:104D7000816A8362F0BDF0B5784908684A69C00469
:104D8000C50E4868D204C004C00E400105438868BF
:104D9000D20EC004C00E80020543C8685206C0048B
:104DA000C00EC00305430869CB69C004C00E0405EA
:104DB000254315438A69DB04D204DB0ED20E5B0166
:104DC0001A430B6AAC46DB04DB0E9B021A434B6AA8
:104DD0004D6BDB04DB0EDB031A438B6AED04DB0453
:104DE000DB0E1B051A43CB6AED0EDB04DB0E5B0604
:104DF0001A430B6B6D01DB04DB0E2B438D6BC96B10
:104E0000ED04ED0EAD022B43C904C90E47010600A7
:104E10003E4387023E43C7033E43264340060643C4
:104E200048010C000443880204434D48CD03406808
:104E30002B430100FF302C43FF30801C4569654641
:104E4000456187698261C769C361436B330046630B
:104E5000866B8363C66BC363080009217E187B3CA5
:104E600001000000684B00A00002000009E2AC7ADB
:104E70008901401801690561416942618169846164
:104E8000F0BD10B50400FFF712FF2000FFF76FFE22
:104E9000FFF77BFF10BD37494968FF31FF31891C9F
:104EA0000A6A000712091201000F02430A62086A27
:104EB0000F2212039043086270472E494968FF3160
:104EC000FF31891C0A6AF02300079A43000E02434F
:104ED0000A62086A1A0390430862704730B50400FA
:104EE000244D04280CD21120FFF758FD69680922CF
:104EF00092018918C9698904C90E884200D2042424
:104F00006868FF30FF30801C016A0F221202914353
:104F10002207120D1143016230BD164A10B55368C5
:104F20000522D2019A1813691F246406C006A34300
:104F300080080343136110696311C9069843C909C6
:104F40000843106110BD0B4A10B553680522D20109
:104F50009A1813691F24E403C006A343000B0343FC
:104F6000136110696311C9069843490C084303E0B3
:104F7000C0CF00B0705700B0106110BDF94A10B535
:104F800052680523DB01D21813691F246401C0068F
:104F9000A343800D034313611069C9064009400112
:104FA000C90E0843106110BDEE4A10B552680523C2
:104FB000DB01D21853691F246401C006A343800D8E
:104FC000034353615069C90640094001C90E0843B3
:104FD000506110BD0C2010B5FFF7D5FC0400112066
:104FE000FFF7D1FC2100FFF7DFFF1220FFF7CBFC1A
:104FF00004001320FFF7C7FC2100FFF78EFF1420E9
:10500000FFF7C1FC04001620FFF7BDFC2100FFF7ED
:105010009AFF1720FFF7B7FC04001920FFF7B3FC35
:105020002100FFF7ABFF10BDCE4905224968D20130
:1050300089180A699205D20E824206D30A69D206FD
:10504000D20E824201D8082070470A691203D20E9C
:10505000824206D30A695204D20E824201D8042049
:1050600070470A699200D20E824206D363FA750332
:1050700001000000644D00A000020000101A720A36
:105080000A69D201D20E824201D8022070474A69D1
:105090009205D20E824206D34969C906C90E8142E1
:1050A00001D80120704700207047B349496880311A
:1050B000CA6AFF23E13300079A43C00D0243CA6264
:1050C0007047AD4900B549688031CA6AC3065209C4
:1050D0005201DB0E1A43CA62FFF7B0FF0006000E52
:1050E000FFF7E3FF00BDA4494968C0314A69FF23C7
:1050F000E13300079A43C00D02434A6170479E495D
:1051000000B54968C0314A69C30652095201DB0E35
:105110001A434A61FFF792FF0006000EFFF7E3FF14
:1051200000BD95494968FF3141314A6BFF23E133A6
:1051300000079A43C00D02434A6370478E4900B589
:105140004968FF3141314A6BC30652095201DB0EF7
:105150001A434A63FFF772FF0006000EFFF7E1FFF4
:1051600000BD85494968FF31491C4A69FF23E13385
:1051700000079A43C00D02434A6170477E4900B55B
:105180004968FF31491C4A69C30652095201DB0EC6
:105190001A434A61FFF752FF0006000EFFF7E1FFD6
:1051A00000BD75494968FF31FF31891C0A6A0F2328
:1051B0005B0600079A43C00802430A6270476E49C3
:1051C00000B54968FF31FF31891C0A6A1F231B059E
:1051D0009A43C306DB091A430A62FFF72FFF000652
:1051E000000EFFF7DEFF00BD70B505000D20FFF7D4
:1051F000DFFB61494E68092189017118CA6992046F
:10520000D20E904201D2012200E000225A4800242E
:10521000401C035DAB4204D0641C2406240E022C07
:10522000F7D3086A18255543534A000C0004083286
:10523000535B18430862486A000C0004AA1853889C
:1052400018434862886A9388000C000418438862F7
:10525000C86AD388000C00041843C862086B13891D
:10526000000C000418430863486B5389000C0004C9
:1052700018434863886B9389000C0004110CC25ECC
:1052800001000000604F00A000020000E4F2CCB773
:1052900018438863C86BD389000C00041843C863A3
:1052A0000520C00130180368168A1B0C1B04334309
:1052B00003604368568A1B0C1B04334343608368B6
:1052C000968A1B0C1B0433438360C368D28A1B0C71
:1052D0001B041343C36030232C4A634338329A18AB
:1052E000535B0C6A1B042404240C23430B625219E5
:1052F00053884C6A1B042404240C23434B62938878
:105300008C6A1B042404240C23438B62D388CC6A4C
:105310001B042404240C2343CB6213890C6B1B0451
:105320002404240C23430B6353894C6B1B04240477
:10533000240C23434B6393898C6B1B042404240C9F
:1053400023438B63D389CC6B1B042404240C234399
:10535000CB63118A036809041B041B0C1943016009
:10536000518A436809041B041B0C19434160918A4C
:10537000836809041B041B0C19438160D18AC2682D
:1053800009041204120C1143C16070BD705700B0C3
:1053900055494A68092189015118CA691F235B02CE
:1053A000C0069A43800C0243CA61C8690122920474
:1053B0009043C86170474C494968C0314A690F231E
:1053C0009B0300079A43800B02434A61704746499A
:1053D00000B54968C0314A691F235B029A43C3067E
:1053E0009B0C1A434A61FFF733FE0006000EFFF7DD
:1053F000E2FF00BD3C494A68092189015118CA6988
:10540000FF23E13300079A43C00D0243CA6170478E
:10541000354900B54A68092189015118CA69C3068E
:1054200052095201DB0E1A43CA61FFF711FE000652
:10543000000EFFF7DFFF00BD10B504000D20FFF7E1
:10544000C1FAFFF7A5FF1620FFF7B1FAFFF7C1FE7B
:10545000E00614D50120C007C07CC1070FD00007AB
:10546000400F02282AD0032809D11620FFF7AAFAF4
:10547000FFF78EFF1620FFF79AFAFFF7AAFE162015
:10548000FFF795FAFFF7C4FF1620FFF7D5E8D83EDF
:10549000010000005C5100A0000200009AE96B07C7
:1054A00090FAFFF79EFF1820FFF78BFAFFF71DFE1B
:1054B0001620FFF786FAFFF736FE1620FFF781FA6F
:1054C000FFF750FE1620FFF77CFAFFF76BFE10BDCA
:1054D0001120FFF781FAFFF765FFDAE708488168D6
:1054E00001221207914381608168C2059143816066
:1054F000816852109143816070470000705700B07E
:10550000802A008070B506000C0015001BF034FEE8
:10551000604A31018918002D03D0002C06D1091DE5
:1055200004E0002C01D0083100E00C310C681BF0C5
:1055300027FE200070BDFFB585B014000D001E00D1
:105540001BF01AFE01905348290108180100083188
:105550000F1D002E049105D0002C01D0010006E0A3
:10556000011D04E0002C01D0049900E03900494BF2
:1055700009681A0060329646121D0392121D944665
:10558000121D002E029204D0002C724605D1039AFF
:1055900003E0002C624600D1029A059B12681500B8
:1055A000002E03D0002C06D1001D04E0002C01D0F9
:1055B000049800E0380003600598904202D9059DE8
:1055C000012727E0914244D10598814241D9314BCE
:1055D000012700252800002E08D0002C02D0010150
:1055E000C9180CE00101C918091D08E0002C03D0FE
:1055F0000101C918083102E00101C9180C3109681C
:10560000A94200D90D00401C0628E4DB954220D0B9
:10561000002F1ED0002E04D0002C704605D1039818
:1056200003E0002C604600D10298002F056010D0E6
:10563000002C09D0002E03D0280000F078FA08E0F2
:10564000280002F0F8FD04E0002E02D0280002F04D
:10565000D9FD01981BF094FD280009B0F0BD0E485B
:1056600010B50068002801D0FFF738FF10BD0122F7
:10567000130060E7012200235DE7002201235AE7BF
:105680000022130057E7012211003BE7002201210D
:1056900038E7000000D000B0B46300B0FA3CD2E3B9
:1056A00001000000585300A0000200006E01D5BAAE
:1056B00010B502F0BDFE10BDF949FF22C832888B3B
:1056C0001042FCD17047F8B5F64C6069002802D052
:1056D0001BF05CFDFEE71BF059FD6061002101201D
:1056E000FEF788FF002810D0EF4EB488012080021A
:1056F0000440B088EC4D3527A0433F012035B84227
:1057000004D1287D012108432875F8BD022000F04E
:105710001CFB0028F9D03C43B480297D01200143C3
:105720002975F8BDDF4810B5446900214161FF21AA
:105730000170DD482030017D4908490001750120D4
:10574000FEF77AFF20001BF025FD10BD70B5D54C8B
:105750006069002802D01BF019FDFEE71BF016FD62
:10576000606100210120FEF745FF00280DD0CE4DDD
:10577000AC88012080020440A888A04305D0012005
:1057800000F0E3FA002800D0AC8070BDC54810B529
:10579000446900214161FF2101700120FEF74CFFA7
:1057A00020001BF0F7FC10BD70B5BE4E70690028DC
:1057B00002D01BF0EBFCFEE71BF0E8FC706100215F
:1057C0000120FEF717FF002814D0B74DAC88012048
:1057D00080020440A888A04382280BD02888F0804B
:1057E000002000F0B2FA002804D0A888308182207E
:1057F0000443AC8070BDAB4810B5AB490289446925
:105800008A80C2880A8000214161FF210170012045
:10581000FEF712FF20001BF0BDFC10BD70B5A14DBE
:105820006869002802D01BF0B1FCFEE71BF0AEFC5B
:10583000686100210120FEF7DDFE00281BD09A4E92
:10584000B488012080020440B088A043022812D00E
:10585000FDF7F7FA002803D0012803D13F2002E02A
:105860001A2000E07F203188E9803080B0882881CC
:1058700002200443B48070BD8A4810B58A49028969
:1058800044698A80C2880A8000214161FF21017039
:105890000120FEF7D1FE20001BF07CFC10BD70B58E
:1058A000804C6069002802D01BF070FCCE71162E6F
:1058B00001000000545500A00002000077F90BCA57
:1058C000FEE71BF06DFC7B4D6061AC88012080021F
:1058D0000440A8887A4EA043B04206D0042000F0CD
:1058E0003EFA002801D03443AC8070BD724910B537
:1058F000486900224A61FF220A701BF055FC10BD66
:1059000070B56D4C6069002802D01BF049FCFEE7C1
:105910001BF046FC606100210120FEF775FE0028A7
:1059200010D0644DAC88012080020440A888654EE8
:10593000A043B04206D0042000F011FA002801D0A4
:105940003443AC8070BD5C4810B5446900214161AE
:10595000FF2101700120FEF779FE20001BF024FCDE
:1059600010BD70B505000E0002F06CFD534C2034E4
:10597000258102F067FDA68002F064FD70BD70B560
:10598000050002F05FFD4D4C2034258102F05AFDE8
:10599000207970BD30B505000C00FFF797FE454B30
:1059A00020331D81FFF792FE9C80FFF78FFE30BDF4
:1059B00030B505000C00FFF789FE3E4B20331D81FA
:1059C000FFF784FE9C80FFF781FE30BD10B5040018
:1059D000FFF77CFE374B20331C81FFF777FE98885A
:1059E00010BD10B50400FFF771FE324B20331C814F
:1059F000FFF76CFE187910BD70B504000D00FFF7BD
:105A0000BEFF284301002000FFF7ABFF70BD70B55B
:105A100004000D00FFF7B3FFA84301002000FFF7CB
:105A2000A0FF70BD24484178002909D126490968A2
:105A3000012209024270090F02002032515C81707C
:105A4000807870471C4910B5C878002815D10861C6
:105A50001D4840680A008007800F1032102301247F
:105A6000002807D0012803D0022803D0032803D13F
:105A7000136001E030201060CC70086910BD12483E
:105A8000803000880006000E704700B5FFF7F7FF72
:105A9000022805D10C4840688007800F012800D0FB
:105AA000002000BD094B596838229143104008433B
:105AB00058607047003800A8385800B04C7166C96B
:105AC00001000000505700A0000200008311B577CC
:105AD0000008009050530000501300000020008088
